:100000000C9433000C94850A0C94850A0C94850A90
:100010000C94850A0C94850A0C94850A0C945C094E
:100020000C94850A0C94850A0C94850A0C94850A14
:100030000C94850A0C94850A0C94850A0C94850A04
:100040000C94850A0C94850A0C94850A0C94850AF4
:100050000C94850A0060066880066806B000150EDC
:1000600006B006FA800011241FBECFE5D8E0DEBF3F
:10007000CDBFE4E5F0E040E017C0B591A591359122
:100080002591059107FD0CC095918591EF01F92F00
:10009000E82F05900D92A217B307D9F7FE0104C00F
:1000A0001D92A217B307E1F7E536F40731F70E9476
:0A00B0005B060C945B00F894FFCF90
:1000BA005461736B31005461736B32005461736B1A
:0800CA0033005461736B340034
:0600D20049444C45000307
:1000D8002F923F924F925F926F927F928F92AF9240
:1000E800BF92CF92DF92EF920F931F93CF93DF933C
:1000F8001C013A01862E59012801C9010E948A0370
:100108008C01892B09F414C186E290E00E948A03CD
:10011800EC01892B61F0188F0F8B21E0A21AB1082E
:100128000A0D1B1D61147104810429F431C0C80132
:100138000E94DC07FDC0F301849187FC8081898FD0
:10014800F301849187FC8081882301F1AE01465E2A
:100158005F4FA82DC3010196A11DB8E06B0E711C5D
:10016800811C2A2FFC017491A7FD7081FA017193FB
:10017800AF01E82FF92F0196A11D349127FD308199
:10018800332321F086159705A80559F718A201C051
:10019800198EF3E0FE1520F40F2EF3E0EF2EF02D6C
:1001A800EE8A5E0122E0A20EB11CC5010E94760A09
:1001B800CE010C960E94760AD987C88784E090E021
:1001C8008E1991099D878C87DB8BCA8B84E0FE0191
:1001D800B196DF011D928A95E9F71DA2A201B1012E
:1001E800C8010E94C60499838883C114D10419F0F8
:1001F800F601D183C0830FB6F8940F928091F80668
:100208008F5F8093F8068091F0069091F106892B14
:10021800A9F5D093F106C093F0068091F8068130D5
:10022800E9F584E496E00E94300A8DE496E00E94A5
:10023800300A86E596E00E94300A8FE596E00E9433
:10024800300A8BEC96E00E94300A82EC96E00E941D
:10025800300A89EB96E00E94300A80EB96E00E9413
:10026800300A8BEC96E09093EF068093EE0682ECD2
:1002780096E09093ED068093EC0610C08091F60608
:1002880081110CC0E091F006F091F10696898E89F3
:10029800891720F0D093F106C093F0068091F306F9
:1002A8008F5F8093F3068E899091F706981710F464
:1002B8008093F70690E0FC01EE0FFF1FEE0FFF1F83
:1002C800EE0FFF1F8E0F9F1FFC01EC5BF94F0180A3
:1002D800F281E02DFD83EC83848195819F838E8359
:1002E800A481B5811396BC92AE921297B582A4826E
:1002F800EE89F0E0CF01880F991F880F991F880FAA
:10030800991FE80FF91FEC5BF94FFB87EA8780819B
:100318008F5F80830F900FBE8091F606882331F09F
:100328008091F0069091F10681E003C081E001C060
:100338008FEFDF91CF911F910F91EF90DF90CF90CA
:10034800BF90AF908F907F906F905F904F903F904D
:040358002F90089545
:10035C000F931F93CF93DF938091F2068111EFC01F
:10036C00C091EA06D091EB068E010F5F1F4F1093E0
:10037C00EB060093EA0601151105B9F48091EE061F
:10038C009091EF062091EC063091ED063093EF063C
:10039C002093EE069093ED068093EC068091F40684
:1003AC008F5F8093F4060E94E0098091E60690919D
:1003BC00E7060817190708F4CBC0E091EE06F09198
:1003CC00EF068081882381F0E091EE06F091EF0634
:1003DC000580F681E02D0680F781E02D82819381E6
:1003EC0008171907E0F416C08FEF9FEF9093E706FC
:1003FC008093E606ADC0E091EE06F091EF06058025
:10040C00F681E02D0680F781E02D8281938108171B
:10041C00190728F49093E7068093E60699C0A28505
:10042C00B3858481958126813781EC013D832C83B2
:10043C008681978124813581EC013B832A839F013E
:10044C002E5F3F4F11968D919C91129782179307B7
:10045C0031F48681978112969C938E931197138613
:10046C0012868C9181508C93A489B589109711F1C7
:10047C008685978540895189EC015D834C83808901
:10048C00918946855785EC015B834A8311964D9182
:10049C005C911297CF010C964817590731F480895B
:1004AC00918912969C938E931197158A148A8C912C
:1004BC0081508C9386899091F706981710F480934D
:1004CC00F70690E0DC01AA0FBB1FAA0FBB1FAA0FF7
:1004DC00BB1F8A0F9B1FDC01AC5BB94F11960D90B3
:1004EC00BC91A02DB583A48314968D919C911597E6
:1004FC009783868314968D919C911597EC013B8381
:10050C002A8315963C932E931497A689B0E0CD01BF
:10051C00880F991F880F991F880F991FA80FB91F53
:10052C00AC5BB94FB387A2878C918F5F8C93E091B2
:10053C00EE06F091EF06808181115DCF55CF809151
:10054C00E8069091E90601969093E9068093E806F7
:0C055C0080E0DF91CF911F910F91089576
:100568001F93CF93DF930FB6F8940F928091F20602
:1005780081508093F2068091F2068111C0C080916B
:10058800F80681119BC0BBC0DB011596ED91FC916B
:1005980016970680F781E02DA489B5898685978509
:1005A80020893189EC013D832C83808991892685B6
:1005B8003785EC013B832A83CF010C9611962D9148
:1005C8003C9112972817390731F48089918912963E
:1005D8009C938E931197158A148A8C9181508C93D1
:1005E800A285B3858481958126813781EC013D837D
:1005F8002C838681978124813581EC013B832A8372
:100608009F012E5F3F4F11968D919C9112978217F3
:10061800930731F48681978112969C938E93119754
:10062800138612868C9181508C9386899091F70657
:10063800981710F48093F70690E0DC01AA0FBB1F0F
:10064800AA0FBB1FAA0FBB1F8A0F9B1FDC01AC5B45
:10065800B94F11960D90BC91A02DB583A483149623
:100668008D919C9115979783868314968D919C9173
:100678001597EC013B832A8315963C932E93149788
:10068800A689B0E0CD01880F991F880F991F880FA0
:10069800991FA80FB91FAC5BB94FB387A2878C917C
:1006A8008F5F8C93A091F006B091F10696895696CB
:1006B8008C91981740F04093F50605C0E0E0F0E013
:1006C80069EB76E041E0DB018C9181115DCFEF2B86
:1006D80011F00E94E009C091E806D091E906209740
:1006E80061F011E00E94AE0181111093F506219787
:1006F800C9F71092E9061092E8068091F5060F9066
:0C0708000FBE80E0DF91CF911F9108959B
:10071400CF92DF92EF92FF920F931F93CF93DF93C9
:10072400EC010E946A0A8091E2069091E306892B0B
:1007340041F5E4EDF6E0A8E6B0E0B183A0831382CE
:100744001282E0E4F6E0F093E306E093E20613821B
:1007540012821182108288ED95E013969C938E93F9
:100764001297ED93FC939093DF068093DE069093AB
:10077400E1068093E00680E090E89093D9068093A8
:10078400D806E090D806F090D906C7018C239D23A3
:10079400892B09F06DC0209709F46DC09E012C5F70
:1007A4003F4FC217D30708F069C02115310509F47A
:1007B40068C00091E0061091E1060217130708F4DF
:1007C40063C0C091D406D091D506E4EDF6E002C032
:1007D400FE01EC018A819B818217930720F48881B2
:1007E40099810097A9F78091E2069091E306C817D2
:1007F400D90709F44CC0C080D18084E0C80ED11C54
:1008040088819981918380834A815B81421B530B48
:100814004930510550F0CE01820F931FFC015383E0
:1008240042833B832A830E940E078A819B81081B93
:10083400190B1093E1060093E0062091DE06309137
:10084400DF060217130720F41093DF060093DE0679
:10085400E82AF92AFB82EA82198218828091DC064E
:100864009091DD0601969093DD068093DC0611C01D
:10087400C12CD12C0EC0C12CD12C0BC0C12CD12C1D
:1008840008C0C12CD12C05C0C12CD12C02C0C12C54
:10089400D12C0E94B402C601DF91CF911F910F9118
:0A08A400FF90EF90DF90CF900895D1
:1008AE0010C00E945C0A58F00E94550A40F029F4CC
:1008BE005F3F29F00C94700A51110C94640A0C9449
:1008CE00820A0E94800968F39923B1F3552391F3AC
:1008DE00951B550BBB27AA2762177307840738F0A1
:1008EE009F5F5F4F220F331F441FAA1FA9F335D0FE
:1008FE000E2E3AF0E0E832D091505040E695001CB2
:10090E00CAF72BD0FE2F29D0660F771F881FBB1F6B
:10091E00261737074807AB07B0E809F0BB0B802D49
:10092E00BF01FF2793585F4F3AF09E3F510578F075
:10093E000C94700A0C94640A5F3FE4F3983ED4F36F
:10094E00869577956795B795F7959F5FC9F7880F49
:10095E00911D9695879597F90895E1E0660F771F9B
:10096E00881FBB1F621773078407BA0720F0621B2C
:0E097E00730B840BBA0BEE1F88F7E0950895FB
:10098C0031E1FC013083319722E220833197A3E3DC
:10099C00A0833197608331977083319710823197A0
:1009AC0060E8608331971082319762E06083319701
:1009BC0063E06083319764E06083319765E0608326
:1009CC00319766E06083319767E06083319768E028
:1009DC006083319769E06083319760E16083319780
:1009EC003083319732E13083319733E13083319763
:1009FC0034E13083319735E13083319736E1308300
:100A0C00319737E13083319738E13083319739E1D1
:100A1C003083319730E23083319731E23083319734
:100A2C002083319723E22083319740833197508381
:100A3C00319726E22083319727E22083319728E2F1
:100A4C002083319729E22083319720E3208331974B
:080A5C0021E320838697089531
:100A640011C00E94550A38F00E945C0A20F039F443
:100A74009F3F19F426F40C94820A0EF4E095E7FBE8
:100A84000C94700AE92F0E94800958F3BA17620780
:100A940073078407950720F079F4A6F50C94630A8C
:100AA4000EF4E0950B2EBA2FA02D0B01B901900185
:100AB4000C01CA01A0011124FF27591B99F0593FC9
:100AC40050F4503E68F11A16F040A22F232F342F11
:100AD4004427585FF3CF469537952795A795F0405F
:100AE4005395C9F77EF41F16BA0B620B730B840B74
:100AF400BAF09150A1F0FF0FBB1F661F771F881F2C
:100B0400C2F70EC0BA0F621F731F841F48F4879583
:100B140077956795B795F7959E3F08F0B0CF939575
:0E0B2400880F08F09927EE0F97958795089592
:100B32008091F206882321F081E08093F5060895E2
:100B42001092F5062091F706822F90E0FC01EE0F3D
:100B5200FF1FEE0FFF1FEE0FFF1FE80FF91FEC5BE9
:100B6200F94F3081311111C02150822F90E0FC01E8
:100B7200EE0FFF1FEE0FFF1FEE0FFF1FE80FF91F13
:100B8200EC5BF94F3081332379F3AC01440F551FED
:100B9200440F551F440F551F480F591FDA01AC5B14
:100BA200B94F1196ED91FC9112970280F381E02DDD
:100BB2001296FC93EE931197495B594FE417F50790
:100BC20029F442815381FD0152834183FC01EE0FDE
:100BD200FF1FEE0FFF1FEE0FFF1F8E0F9F1FFC0167
:100BE200EC5BF94F0180F281E02D86819781909331
:0C0BF200F1068093F0062093F7060895AA
:100BFE000F931F93CF93DF93EC010FB6F8940F92E0
:100C0E00892B21F4C091F006D091F1068E010E5F72
:100C1E001F4FC8010E9435098C899D89892B21F0AF
:100C2E00CE010C960E9435098091F3068F5F80935A
:100C3E00F3068091F0069091F106C817D90759F482
:100C4E00B80180EB96E00E94A2098091F9068F5FB1
:100C5E008093F90607C08091F80681508093F806BC
:100C6E000E94E0090F900FBE8091F0069091F10660
:100C7E00C817D90739F08F89988D0E94DC07CE01ED
:100C8E000E94DC078091F606882349F08091F006D9
:100C9E009091F106C817D90711F40E94B506DF919D
:080CAE00CF911F910F910895F1
:100CB600CFEFCABBC4BB80E895E20E94C3090F2EE2
:100CC600F0E6CF2EF0E0DF2EF02DEE24E3940EE9D1
:100CD60016E024E630E04AEB50E060E08EE39AE06E
:100CE6000E946C000F2EF2E6CF2EF0E0DF2EF02DE4
:100CF6000CE816E024E630E040EC50E060E08EE3DD
:100D06009AE00E946C000F2EF4E6CF2EF0E0DF2E64
:100D1600F02D0AE716E024E630E046EC50E060E00D
:100D26008EE39AE00E946C000F2EF6E6CF2EF0E0DE
:100D3600DF2EF02D08E616E024E630E04CEC50E01D
:100D460060E089E099E00E946C002FEF83EC99E067
:100D5600215080409040E1F700C000000E947D08CD
:040D6600CBBBFFCF35
:100D6A000F920FB6F8940F921F9211242F923F926E
:100D7A004F925F926F927F928F929F92AF92BF92A1
:100D8A00CF92DF92EF92FF920F931F932F933F938D
:100D9A004F935F936F937F938F939F93AF93BF9379
:100DAA00CF93DF93EF93FF93A091F006B091F106F2
:100DBA000DB60D920EB60D920E949905A091F006FD
:100DCA00B091F106CD91CDBFDD91DEBFFF91EF91DC
:100DDA00DF91CF91BF91AF919F918F917F916F9149
:100DEA005F914F913F912F911F910F91FF90EF903B
:100DFA00DF90CF90BF90AF909F908F907F906F9031
:100E0A005F904F903F902F901F900F900FBE0F90C2
:020E1A00089539
:100E1C00CF93DF93DC01E4EDF6E001C0F901208112
:100E2C0031812A173B07D0F382819381AF01480FA0
:100E3C00591FA417B50749F412964D915C9113975D
:100E4C00840F951F93838283DF0112968D919C9161
:100E5C001397ED01C80FD91F2C173D07D9F420911A
:100E6C00E2063091E306C217D30781F02A813B8159
:100E7C00820F931F13969C938E931297C081D181EE
:100E8C008881998111969C938E9307C01196DC935F
:100E9C00CE9303C011963C932E93AE17BF0711F05F
:0A0EAC00B183A083DF91CF91089578
:100EB6000F931F93CF93DF93EC010091EA061091F5
:100EC600EB068091F0069091F10602960E94350994
:100ED600C00FD11FE091F006F091F106D383C283D3
:100EE600C017D10768F46091F0067091F106809101
:100EF600EC069091ED066E5F7F4F0E944C0817C07E
:100F06006091F0067091F1068091EE069091EF06E1
:100F16006E5F7F4F0E944C088091E6069091E7062F
:100F2600C817D90720F4D093E706C093E606DF91E9
:080F3600CF911F910F91089566
:100F3E00E89409C097FB3EF4909580957095619565
:100F4E007F4F8F4F9F4F9923A9F0F92F96E9BB271B
:100F5E009395F695879577956795B795F111F8CF97
:100F6E00FAF4BB0F11F460FF1BC06F5F7F4F8F4F02
:100F7E009F4F16C0882311F096E911C0772321F0F8
:100F8E009EE8872F762F05C0662371F096E8862F90
:100F9E0070E060E02AF09A95660F771F881FDAF7E7
:0A0FAE00880F9695879597F908952E
:100FB800CF93DF930097A1F1FC013497228133810D
:100FC8004091D8065091D906B90164237523672B3F
:100FD80039F160817181672B19F5EF0140955095C2
:100FE80024233523338322830E946A0A2091E00652
:100FF8003091E1068A819B81820F931F9093E106CD
:101008008093E006CE010E940E078091DA06909147
:10101800DB0601969093DB068093DA060E94B40201
:06102800DF91CF91089555
:10102E001BBC89EF8ABD8BE08EBD89B7806189BFFD
:10103E00A091F006B091F106CD91CDBFDD91DEBF4E
:10104E00FF91EF91DF91CF91BF91AF919F918F91D2
:10105E007F916F915F914F913F912F911F910F91C2
:10106E00FF90EF90DF90CF90BF90AF909F908F90BA
:10107E007F906F905F904F903F902F901F900F90AA
:0A108E000FBE0F90089581E0089551
:10109800CF93DF93EB01488159814F3F2FEF5207E0
:1010A80021F4FC01A781B0850DC0DC01139601C0B5
:1010B800DF011296ED91FC9113972081318142173F
:1010C8005307B0F71296ED91FC911397FB83EA83CF
:1010D800D583C483BD83AC831396DC93CE931297D8
:1010E80099878887FC0120812F5F2083DF91CF912A
:0210F800089559
:1010FA00CF92DF92EF920F931F930F2EF4EECF2E23
:10110A00F6E0DF2EF02DE12C00E010E025E530E0DE
:10111A0042ED50E060E08BED98E00E946C00813077
:10112A0081F4F8948FEF9FEF9093E7068093E60699
:10113A0081E08093F6061092EB061092EA060E946E
:0E114A0017081F910F91EF90DF90CF9008953E
:101158000E94880988F09F5798F0B92F9927B751AE
:10116800B0F0E1F0660F771F881F991F1AF0BA9543
:10117800C9F714C0B13091F00E94630AB1E0089534
:101188000C94630A672F782F8827B85F39F0B93F26
:10119800CCF3869577956795B395D9F73EF49095F6
:0E11A8008095709561957F4F8F4F9F4F0895F2
:1011B60000EB16E08091F906882329F10FB6F89422
:1011C6000F92D8011596ED91FC911697C681D7819D
:1011D600CE0102960E9435098091F80681508093CF
:1011E600F8068091F90681508093F9060F900FBE9C
:1011F6008F89988D0E94DC07CE010E94DC078091C2
:0C120600F9068111DBCF0E94B506D4CFA1
:101212005C01C0E0D0E02196C5010E94210A82E073
:1012220090E00E94FC09C530D10539F4809160003C
:10123200909161000E94FF05EECFCA30D10559F7A7
:101242000F2EF0E6CF2EF0E0DF2EF02DEE24E39409
:101252000EE916E024E630E04AEB50E060E08EE36F
:081262009AE00E946C00D7CF56
:10126A00CF93DF93FC01A085B185C281D3818481AC
:10127A0095819D838C83C481D581828193819B834F
:10128A008A8311968D919C911297E817F90731F488
:10129A008481958112969C938E931197118610865C
:0E12AA008C9181508C938C91DF91CF9108959F
:1012B8001F920F920FB60F9211242F933F934F93C3
:1012C8005F936F937F938F939F93AF93BF93EF93A6
:1012D800FF930E94AE01FF91EF91BF91AF919F9153
:1012E8008F917F916F915F914F913F912F910F90C7
:0812F8000FBE0F901F90189526
:1013000057FD9058440F551F59F05F3F71F04795B6
:10131000880F97FB991F61F09F3F79F0879508959B
:10132000121613061406551FF2CF4695F1DF08C0BA
:10133000161617061806991FF1CF869571056105D7
:041340000894089570
:10134400CF93DF939C01FB01DC011196CD91DC91DD
:101354001297D383C2838C819D81958384838C81EE
:101364009D81DC0113967C936E9312977D836C832D
:1013740031872087F90180818F5F8083DF91CF914E
:021384000895CA
:10138600BC018AB188698AB9072E000C880B990BB3
:101396000E94A1079B01AC0160E074E284E799E436
:1013A6000E947E0A20E030E040E85FE30E94470AA0
:0A13B6000E944E0A69B970BD089547
:1013C000E091EE06F091EF068081811107C08FEF6A
:1013D0009FEF9093E7068093E6060895E091EE066E
:1013E000F091EF060580F681E02D80819181909348
:0813F000E7068093E60608956C
:1013F800CF93DF93EC01892B51F00E946A0A60E0D9
:10140800CE010E945B070E94B402811102C00E94B3
:08141800B506DF91CF910895A4
:10142000092E0394000C11F4882352F0BB0F40F4F2
:10143000BF2B11F460FF04C06F5F7F4F8F4F9F4F32
:0214400008950D
:10144200CF93DF93EC018881882331F021960E94AB
:0E1452007A0A89918111FBCFDF91CF91089525
:10146000FC010396928381832FEF3FEF3483238324
:0C147000968385839087878310820895FF
:10147C00EC01CE010E94210A85E090E00E94FC095B
:02148C00F8CF97
:0E148E005058BB27AA270E9432050C94100A62
:0E149C000E94AC086894B1110C94640A089583
:0E14AA0000240A94161617061806090608955F
:0E14B80000240A941216130614060506089561
:0E14C600E894BB2766277727CB0197F9089596
:0C14D4008091F2068F5F8093F20608956D
:0C14E00097F99F6780E870E060E00895D5
:0814EC00FC0111861086089531
:0814F4005D9BFECF8CB9089549
:0814FC000E9457040C94100A31
:061504009FEF80EC08954A
:04150A000C9400003D
:10150E005461736B342069732072756E6E696E67E9
:02151E000D00BE
:101520005461736B332069732072756E6E696E67D8
:021530000D00AC
:101532005461736B322069732072756E6E696E67C7
:021542000D009A
:101544005461736B312069732072756E6E696E67B6
:021554000D0088
:00000001FF
