:100000000C942D000C94450E0C94450E0C94450E4A
:100010000C94450E0C94450E0C94450E0C943E0C1D
:100020000C94450E0C94450E0C94450E0C94450E04
:100030000C94450E0C94450E0C94450E0C94450EF4
:100040000C94450E0C94450E0C94450E0C94450EE4
:100050000C94450E006006AC800011241FBECFE555
:10006000D8E0DEBFCDBFE4E5F0E040E017C0B591D9
:10007000A59135912591059107FD0CC0959185912C
:10008000EF01F92FE82F05900D92A217B307D9F7CA
:10009000FE0104C01D92A217B307E1F7E935F4078A
:0E00A00031F70E94BA0A0C945500F894FFCF75
:1000AE005461736B31005461736B32005461736B26
:0200BE0033000D
:0600C00049444C45000319
:1000C6002F923F924F925F926F927F928F92AF9252
:1000D600BF92CF92DF92EF920F931F93CF93DF934E
:1000E6001C013A01862E59012801C9010E9481038B
:1000F6008C01892B09F414C186E290E00E948103E9
:10010600EC01892B61F0188F0F8B21E0A21AB10840
:100116000A0D1B1D61147104810429F431C0C80144
:100126000E947F0AFDC0F301849187FC8081898F3C
:10013600F301849187FC8081882301F1AE01465E3C
:100146005F4FA82DC3010196A11DB8E06B0E711C6F
:10015600811C2A2FFC017491A7FD7081FA0171930D
:10016600AF01E82FF92F0196A11D349127FD3081AB
:10017600332321F086159705A80559F718A201C063
:10018600198EF3E0FE1520F40F2EF3E0EF2EF02D7E
:10019600EE8A5E0122E0A20EB11CC5010E94320E5B
:1001A600CE010C960E94320ED987C88784E090E073
:1001B6008E1991099D878C87DB8BCA8B84E0FE01A3
:1001C600B196DF011D928A95E9F71DA2A201B10140
:1001D600C8010E94DF0699838883C114D10419F0EF
:1001E600F601D183C0830FB6F8940F928091AA06C8
:1001F6008F5F8093AA068091A2069091A306892B11
:10020600A9F5D093A306C093A2068091AA068130D1
:10021600E9F58EE396E00E94D70D87E496E00E940A
:10022600D70D80E596E00E94D70D89E596E00E94FD
:10023600D70D8DE796E00E94D70D84E796E00E94E1
:10024600D70D8BE696E00E94D70D82E696E00E94D7
:10025600D70D8DE796E09093A1068093A00684E7DC
:1002660096E090939F0680939E0610C08091A80604
:1002760081110CC0E091A206F091A30696898E89A1
:10028600891720F0D093A306C093A2068091A506F5
:100296008F5F8093A5068E899091A906981710F412
:1002A6008093A90690E0FC01EE0FFF1FEE0FFF1FE3
:1002B600EE0FFF1F8E0F9F1FFC01E25CF94F0180BE
:1002C600F281E02DFD83EC83848195819F838E836B
:1002D600A481B5811396BC92AE921297B582A48280
:1002E600EE89F0E0CF01880F991F880F991F880FBC
:1002F600991FE80FF91FE25CF94FFB87EA878081B7
:100306008F5F80830F900FBE8091A806882331F0FF
:100316008091A2069091A30681E003C081E001C00E
:100326008FEFDF91CF911F910F91EF90DF90CF90DC
:10033600BF90AF908F907F906F905F904F903F905F
:040346002F90089557
:10034A000F931F93CF93DF938091A4068111EFC07F
:10035A00C0919C06D0919D068E010F5F1F4F10938E
:10036A009D0600939C0601151105B9F48091A0061B
:10037A009091A10620919E0630919F063093A10686
:10038A002093A00690939F0680939E068091A606CE
:10039A008F5F8093A6060E94DA0C8091980690914E
:1003AA0099060817190708F4CBC0E091A006F09146
:1003BA00A1068081882381F0E091A006F091A10630
:1003CA000580F681E02D0680F781E02D82819381F8
:1003DA0008171907E0F416C08FEF9FEF909399065C
:1003EA0080939806ADC0E091A006F091A106058021
:1003FA00F681E02D0680F781E02D8281938108172E
:10040A00190728F4909399068093980699C0A285B3
:10041A00B3858481958126813781EC013D832C83C4
:10042A008681978124813581EC013B832A839F0150
:10043A002E5F3F4F11968D919C91129782179307C9
:10044A0031F48681978112969C938E931197138625
:10045A0012868C9181508C93A489B589109711F1D9
:10046A008685978540895189EC015D834C83808913
:10047A00918946855785EC015B834A8311964D9194
:10048A005C911297CF010C964817590731F480896D
:10049A00918912969C938E931197158A148A8C913E
:1004AA0081508C9386899091A906981710F48093AD
:1004BA00A90690E0DC01AA0FBB1FAA0FBB1FAA0F57
:1004CA00BB1F8A0F9B1FDC01A25CB94F11960D90CE
:1004DA00BC91A02DB583A48314968D919C911597F8
:1004EA009783868314968D919C911597EC013B8393
:1004FA002A8315963C932E931497A689B0E0CD01D2
:10050A00880F991F880F991F880F991FA80FB91F65
:10051A00A25CB94FB387A2878C918F5F8C93E091CD
:10052A00A006F091A106808181115DCF55CF8091FF
:10053A009A0690919B06019690939B0680939A0641
:0C054A0080E0DF91CF911F910F91089588
:100556001F93CF93DF930FB6F8940F928091A40662
:1005660081508093A4068091A4068111C0C0809119
:10057600AA0681119BC0BBC0DB011596ED91FC91CB
:1005860016970680F781E02DA489B589868597851B
:1005960020893189EC013D832C83808991892685C8
:1005A6003785EC013B832A83CF010C9611962D915A
:1005B6003C9112972817390731F480899189129650
:1005C6009C938E931197158A148A8C9181508C93E3
:1005D600A285B3858481958126813781EC013D838F
:1005E6002C838681978124813581EC013B832A8384
:1005F6009F012E5F3F4F11968D919C911297821706
:10060600930731F48681978112969C938E93119766
:10061600138612868C9181508C9386899091A906B7
:10062600981710F48093A90690E0DC01AA0FBB1F6F
:10063600AA0FBB1FAA0FBB1F8A0F9B1FDC01A25C60
:10064600B94F11960D90BC91A02DB583A483149635
:100656008D919C9115979783868314968D919C9185
:100666001597EC013B832A8315963C932E9314979A
:10067600A689B0E0CD01880F991F880F991F880FB2
:10068600991FA80FB91FA25CB94FB387A2878C9197
:100696008F5F8C93A091A206B091A3069689569679
:1006A6008C91981740F04093A70605C0E0E0F0E073
:1006B6006BE676E041E0DB018C9181115DCFEF2B9B
:1006C60011F00E94DA0CC0919A06D0919B062097F1
:1006D60061F011E00E94A50181111093A7062197F0
:1006E600C9F710929B0610929A068091A7060F9062
:0C06F6000FBE80E0DF91CF911F910895AE
:10070200CF92DF92EF92FF920F931F93CF93DF93DB
:10071200EC010E94260E8091940690919506892BF9
:1007220041F5E6E8F6E0A2E6B0E0B183A0831382E9
:100732001282EAE3F6E0F0939506E09394061382C0
:1007420012821182108288ED95E013969C938E930B
:100752001297ED93FC939093910680939006909359
:1007620093068093920680E090E890938B068093A4
:100772008A06E0908A06F0908B06C7018C239D239F
:10078200892B09F06DC0209709F46DC09E012C5F82
:100792003F4FC217D30708F069C02115310509F48C
:1007A20068C000919206109193060217130708F48D
:1007B20063C0C0918606D0918706E6E8F6E002C0E3
:1007C200FE01EC018A819B818217930720F48881C4
:1007D20099810097A9F78091940690919506C81780
:1007E200D90709F44CC0C080D18084E0C80ED11C66
:1007F20088819981918380834A815B81421B530B5B
:100802004930510550F0CE01820F931FFC015383F2
:1008120042833B832A830E9426098A819B81081B8B
:10082200190B109393060093920620919006309133
:1008320091060217130720F4109391060093900675
:10084200E82AF92AFB82EA821982188280918E06AE
:1008520090918F06019690938F0680938E0611C019
:10086200C12CD12C0EC0C12CD12C0BC0C12CD12C2F
:1008720008C0C12CD12C05C0C12CD12C02C0C12C66
:10088200D12C0E94AB02C601DF91CF911F910F9133
:0A089200FF90EF90DF90CF900895E3
:10089C00CF93DF93A82FCB010596A11DFC015A2FF6
:1008AC000E94FB0DDB011696ED91FC911797A48924
:1008BC00B589C685D785808991899D838C83C089AC
:1008CC00D189868597859B838A839F01245F3F4FBF
:1008DC0011968D919C9112978217930731F4808910
:1008EC00918912969C938E931197158A148A8C91E8
:1008FC0081508C938091A406811160C0A285B38530
:10090C00C481D581868197819D838C83C681D78153
:10091C00848195819B838A839F012E5F3F4F119623
:10092C008D919C9112978217930731F48681978150
:10093C0012969C938E931197138612868C918150EC
:10094C008C9386899091A906981710F48093A90628
:10095C0090E0DC01AA0FBB1FAA0FBB1FAA0FBB1F85
:10096C008A0F9B1FDC01A25CB94F11960D90BC91B4
:10097C00A02DB583A48314968D919C911597978384
:10098C0086831496CD91DC9115973B832A8315961B
:10099C003C932E931497A689B0E0CD01880F991F34
:1009AC00880F991F880F991FA80FB91FA25CB94F08
:1009BC00B387A2878C918F5F8C931CC04BE656E05B
:1009CC00DA011196CD91DC911297D787C6878C816D
:1009DC009D81918B808B8C819D81DC0113963C9346
:1009EC002E9312973D832C83558B448BDA018C917B
:1009FC008F5F8C93A091A206B091A3069689569610
:100A0C008C91891720F481E08093A70601C080E0C7
:060A1C00DF91CF91089567
:100A22002F923F924F926F927F928F92BF92CF926C
:100A3200DF92EF92FF920F931F93CF93DF93CDB785
:100A4200DEB728970FB6F894DEBF0FBECDBF7C018C
:100A52004E835F8368873D832C8310E0BB24B3946D
:100A62003C0180E8882E1301482CEAE12E0E311C4D
:100A7200411CFBE16F0E711C811C670188E0C80EEE
:100A8200D11C0FB6F8940F92F701928D838D9817AF
:100A920010F00230B1F4202F4E815F816885C701CA
:100AA2000E947309F7018189882339F0F1E1EF0E81
:100AB200F11CB70180E80E944E040F900FBE81E046
:100AC20055C08C819D81892B21F40F900FBE80E04F
:100AD2004DC0111105C0CE0101960E94E50D1B2DDE
:100AE2000F900FBE0E94260E0FB6F8940F92F701D8
:100AF200858D8F3F09F4158EF701868D8F3F09F49E
:100B0200168E0F900FBEBE016C5F7F4FCE01019615
:100B12000E945A0B811124C00FB6F8940F92F10172
:100B2200949147FC90810F900FBEF301849187FC52
:100B3200808198130FC06C817D81C6010E94840D53
:100B4200C7010E94D1080E94AB0281119ACF0E9474
:100B5200780897CFC7010E94D1080E94AB0291CFBB
:100B6200C7010E94D1080E94AB0280E028960FB60E
:100B7200F894DEBF0FBECDBFDF91CF911F910F91D1
:100B8200FF90EF90DF90CF90BF908F907F906F900B
:080B92004F903F902F90089551
:100B9A006F927F928F929F92AF92BF92CF92DF9283
:100BAA00EF92FF920F931F93CF93DF9300D000D061
:100BBA001F92CDB7DEB78C015B015D834C83E12CBC
:100BCA00992493943C0180E8882E6801E1E1CE0ED5
:100BDA00D11C0FB6F8940F92F801F28CFF20A1F005
:100BEA00B501C8010E94F60CFA94F801F28E8085CC
:100BFA00882331F0085F1F4FB80180E80E944E0435
:100C0A000F900FBE81E053C08C819D81892B21F406
:100C1A000F900FBE80E04BC0E11005C0CE010196D7
:100C2A000E94E50DE92C0F900FBE0E94260E0FB60A
:100C3A00F8940F92F801858D8F3F09F4158EF8010B
:100C4A00868D8F3F09F4168E0F900FBEBE016C5F22
:100C5A007F4FCE0101960E945A0B81111BC0882D2D
:100C6A00B3010E94960D882379F06C817D81C601BB
:100C7A000E94840DC8010E94D1080E94AB02811112
:100C8A00A8CF0E947808A5CFC8010E94D1080E9467
:100C9A00AB029FCFC8010E94D1080E94AB02882DE7
:100CAA00B3010E94960D882309F493CF80E00F9038
:100CBA000F900F900F900F90DF91CF911F910F918E
:100CCA00FF90EF90DF90CF90BF90AF909F908F9062
:060CDA007F906F90089569
:100CE00010C00E94180E58F00E94110E40F029F416
:100CF0005F3F29F00C942C0E51110C94200E0C9493
:100D0000420E0E94620C68F39923B1F3552391F3CC
:100D1000951B550BBB27AA2762177307840738F06A
:100D20009F5F5F4F220F331F441FAA1FA9F335D0C7
:100D30000E2E3AF0E0E832D091505040E695001C7B
:100D4000CAF72BD0FE2F29D0660F771F881FBB1F35
:100D5000261737074807AB07B0E809F0BB0B802D13
:100D6000BF01FF2793585F4F3AF09E3F510578F03F
:100D70000C942C0E0C94200E5F3FE4F3983ED4F3B9
:100D8000869577956795B795F7959F5FC9F7880F13
:100D9000911D9695879597F90895E1E0660F771F65
:100DA000881FBB1F621773078407BA0720F0621BF6
:0E0DB000730B840BBA0BEE1F88F7E0950895C5
:100DBE0031E1FC013083319722E220833197A3E3A6
:100DCE00A08331976083319770833197108231976A
:100DDE0060E8608331971082319762E060833197CB
:100DEE0063E06083319764E06083319765E06083F0
:100DFE00319766E06083319767E06083319768E0F2
:100E0E006083319769E06083319760E16083319749
:100E1E003083319732E13083319733E1308331972C
:100E2E0034E13083319735E13083319736E13083C9
:100E3E00319737E13083319738E13083319739E19B
:100E4E003083319730E23083319731E230833197FE
:100E5E002083319723E2208331974083319750834B
:100E6E00319726E22083319727E22083319728E2BB
:100E7E002083319729E22083319720E32083319715
:080E8E0021E3208386970895FB
:100E960011C00E94110E38F00E94180E20F039F48D
:100EA6009F3F19F426F40C94420E0EF4E095E7FBEE
:100EB6000C942C0EE92F0E94620C58F3BA176207A5
:100EC60073078407950720F079F4A6F50C941F0E96
:100ED6000EF4E0950B2EBA2FA02D0B01B90190014F
:100EE6000C01CA01A0011124FF27591B99F0593F93
:100EF60050F4503E68F11A16F040A22F232F342FDB
:100F06004427585FF3CF469537952795A795F04028
:100F16005395C9F77EF41F16BA0B620B730B840B3D
:100F2600BAF09150A1F0FF0FBB1F661F771F881FF5
:100F3600C2F70EC0BA0F621F731F841F48F487954D
:100F460077956795B795F7959E3F08F0B0CF93953F
:0E0F5600880F08F09927EE0F9795879508955C
:100F64008091A406882321F081E08093A706089548
:100F74001092A7062091A906822F90E0FC01EE0FA3
:100F8400FF1FEE0FFF1FEE0FFF1FE80FF91FE25CBC
:100F9400F94F3081311111C02150822F90E0FC01B2
:100FA400EE0FFF1FEE0FFF1FEE0FFF1FE80FF91FDD
:100FB400E25CF94F3081332379F3AC01440F551FC0
:100FC400440F551F440F551F480F591FDA01A25CE7
:100FD400B94F1196ED91FC9112970280F381E02DA7
:100FE4001296FC93EE9311974F5B594FE417F50754
:100FF40029F442815381FD0152834183FC01EE0FA8
:10100400FF1FEE0FFF1FEE0FFF1F8E0F9F1FFC0130
:10101400E25CF94F0180F281E02D86819781909303
:0C102400A3068093A2062093A90608955D
:10103000EF92FF920F931F93CF93DF93FC01362F14
:10104000892B09F449C0238D222309F447C0022FBC
:1010500010E0448DE42EF12C8FEF9FEFB8010E9439
:10106000700D6E157F0508F43BC0EF010FB6F894C4
:101070000F9260817181CB01249F800D911D1124FD
:1010800095838483128E73836283015011090E9DB0
:10109000C0010F9D900D1E9D900D1124860F971F6E
:1010A000978386838FEF858F868F311109C0808566
:1010B000882371F02896BE0180E80E944E0408C083
:1010C000CF0108960E94D70DCE0141960E94D70D00
:1010D0000F900FBE81E005C080E003C080E001C03A
:1010E00080E0DF91CF911F910F91FF90EF900895D5
:1010F0000F920FB6F8940F921F9211242F923F92E5
:101100004F925F926F927F928F929F92AF92BF9217
:10111000CF92DF92EF92FF920F931F932F933F9303
:101120004F935F936F937F938F939F93AF93BF93EF
:10113000CF93DF93EF93FF93A091A206B091A30604
:101140000DB60D920EB60D920E94B207A091A206A6
:10115000B091A306CD91CDBFDD91DEBFFF91EF91A0
:10116000DF91CF91BF91AF919F918F917F916F91BF
:101170005F914F913F912F911F910F91FF90EF90B1
:10118000DF90CF90BF90AF909F908F907F906F90A7
:101190005F904F903F902F901F900F900FBE0F9039
:0211A0000895B0
:1011A200CF92DF92EF920F931F93CF938C010FB6E2
:1011B200F8940F92FC01C68D1C16C4F4818981112A
:1011C20006C014C0F8018189811107C00FC06801EF
:1011D200F1E1CF0ED11C80E8E82E8E2DB6010E94DF
:1011E2004E0481110E94360EC15061F78FEFF80153
:1011F200868F0F900FBE0FB6F8940F92C58D1C16F6
:10120200C4F48085811106C014C0F8018085811163
:1012120007C00FC06801F8E0CF0ED11C80E8E82EAD
:101222008E2DB6010E944E0481110E94360EC150CD
:1012320061F78FEFF801858F0F900FBECF911F914D
:0A1242000F91EF90DF90CF90089518
:10124C00CF93DF93DC01E6E8F6E001C0F9012081E1
:10125C0031812A173B07D0F382819381AF01480F6C
:10126C00591FA417B50749F412964D915C91139729
:10127C00840F951F93838283DF0112968D919C912D
:10128C001397ED01C80FD91F2C173D07D9F42091E6
:10129C00940630919506C217D30781F02A813B81C1
:1012AC00820F931F13969C938E931297C081D181BA
:1012BC008881998111969C938E9307C01196DC932B
:1012CC00CE9303C011963C932E93AE17BF0711F02B
:0A12DC00B183A083DF91CF91089544
:1012E6000F931F93CF93DF93EC01022F1A8D2C8D52
:1012F6002223B9F1011116C030E08A819B810E9438
:101306002B0D2C8D8A819B81820F911D9B838A8355
:101316002C813D818217930720F1888199819B83D7
:101326008A831FC030E08E819F810E942B0D8C8D99
:1013360090E09195819591092E813F81280F391F63
:101346003F832E83488159812417350730F42C8139
:101356003D81820F931F9F838E83023011F41111FA
:1013660011501F5F1A8F80E0DF91CF911F910F916F
:021376000895D8
:101378000F931F93CF93DF93EC0100919C0610917C
:101388009D068091A2069091A30602960E94170CD2
:10139800C00FD11FE091A206F091A306D383C283A8
:1013A800C017D10768F46091A2067091A3068091D6
:1013B8009E0690919F066E5F7F4F0E94290B17C073
:1013C8006091A2067091A3068091A0069091A10653
:1013D8006E5F7F4F0E94290B809198069091990625
:1013E800C817D90720F4D0939906C0939806DF91BF
:0813F800CF911F910F910895A0
:101400000F931F93CF93DF93282F362F882361F1FB
:10141000682F70E08FEF9FEF0E94700D832F90E098
:101420006817790720F1239FC0011124813E4FEFF7
:10143000940700F5D32FC22F4F960E9481038C0191
:101440000097D1F0D11104C0FC019183808304C0C6
:101450004F96F80191838083F801C38FD48F61E0A8
:10146000C8010E94180808C000E010E005C000E0B4
:1014700010E002C000E010E0C801DF91CF911F91A1
:041480000F9108952B
:10148400E89409C097FB3EF490958095709561951A
:101494007F4F8F4F9F4F9923A9F0F92F96E9BB27D0
:1014A4009395F695879577956795B795F111F8CF4C
:1014B400FAF4BB0F11F460FF1BC06F5F7F4F8F4FB7
:1014C4009F4F16C0882311F096E911C0772321F0AD
:1014D4009EE8872F762F05C0662371F096E8862F45
:1014E40070E060E02AF09A95660F771F881FDAF79C
:0A14F400880F9695879597F90895E3
:1014FE00CF93DF930097A1F1FC01349722813381C2
:10150E0040918A0650918B06B90164237523672B8F
:10151E0039F160817181672B19F5EF014095509576
:10152E0024233523338322830E94260E2091920694
:10153E00309193068A819B81820F931F909393061D
:10154E0080939206CE010E94260980918C0690917E
:10155E008D06019690938D0680938C060E94AB02A9
:06156E00DF91CF9108950A
:1015740040E062E081E00E94000A90936100809361
:10158400600080E895E20E94840CC12CD12CEE24EA
:10159400E39402E310E024E630E04EEA50E060E039
:1015A4008EEB9CE00E94630008EC10E024E630E03F
:1015B40044EB50E060E08EEB9CE00E946300689492
:1015C400EE24E1F800E010E024E630E04AEB50E0DD
:1015D40060E084E49DE00E9463000E948B0B8FEF27
:0415E4008BBBFFCFEF
:1015E8001BBC89EF8ABD8BE08EBD89B7806189BF3E
:1015F800A091A206B091A306CD91CDBFDD91DEBF2B
:10160800FF91EF91DF91CF91BF91AF919F918F9112
:101618007F916F915F914F913F912F911F910F9102
:10162800FF90EF90DF90CF90BF90AF909F908F90FA
:101638007F906F905F904F903F902F901F900F90EA
:0A1648000FBE0F90089581E0089591
:10165200CF93DF93EB01488159814F3F2FEF520720
:1016620021F4FC01A781B0850DC0DC01139601C0F5
:10167200DF011296ED91FC9113972081318142177F
:101682005307B0F71296ED91FC911397FB83EA830F
:10169200D583C483BD83AC831396DC93CE93129718
:1016A20099878887FC0120812F5F2083DF91CF916A
:0216B200089599
:1016B4000FB6F8940F9220919C0630919D06DC01A0
:1016C40011964D915C911297E091A606FC91FE173C
:1016D40041F02417350728F0FB011182108281E0C4
:1016E40015C0241B350BDB014D915C912417350784
:1016F40048F4FB01421B530B518340830E94E50DC8
:1017040080E004C0FB011182108281E00F900FBEC3
:02171400089536
:10171600CF92DF92EF920F931F930F2EF6E9CF2E03
:10172600F6E0DF2EF02DE12C00E010E025E530E0BC
:1017360040EC50E060E089EE9BE00E94630081305F
:1017460081F4F8948FEF9FEF909399068093980613
:1017560081E08093A80610929D0610929C060E9436
:0E176600F40A1F910F91EF90DF90CF9008953D
:101774000E946A0C88F09F5798F0B92F9927B751A7
:10178400B0F0E1F0660F771F881F991F1AF0BA9521
:10179400C9F714C0B13091F00E941F0EB1E0089552
:1017A4000C941F0E672F782F8827B85F39F0B93F44
:1017B400CCF3869577956795B395D9F73EF49095D4
:0E17C4008095709561957F4F8F4F9F4F0895D0
:1017D20002E616E08091AB06882329F10FB6F89451
:1017E2000F92D8011596ED91FC911697C681D7817B
:1017F200CE0102960E94170C8091AA068150809316
:10180200AA068091AB0681508093AB060F900FBE63
:101812008F89988D0E947F0ACE010E947F0A809153
:0C182200AB068111DBCF0E947808D4CF08
:10182E00CF93DF93FC01A085B185C281D3818481E2
:10183E0095819D838C83C481D581828193819B8385
:10184E008A8311968D919C911297E817F90731F4BE
:10185E008481958112969C938E9311971186108692
:0E186E008C9181508C938C91DF91CF910895D5
:10187C001F920F920FB60F9211242F933F934F93F9
:10188C005F936F937F938F939F93AF93BF93EF93DC
:10189C00FF930E94A501FF91EF91BF91AF919F9192
:1018AC008F917F916F915F914F913F912F910F90FD
:0818BC000FBE0F901F9018955C
:1018C40057FD9058440F551F59F05F3F71F04795ED
:1018D400880F97FB991F61F09F3F79F087950895D2
:1018E400121613061406551FF2CF4695F1DF08C0F1
:1018F400161617061806991FF1CF8695710561050E
:0419040008940895A6
:10190800BC018AB188698AB9072E000C880B990B2B
:101918000E94440A9B01AC0160E074E284E799E408
:101928000E943E0E20E030E040E85FE30E94030E94
:0A1938000E940A0E69B970BD0895FF
:10194200CF93DF93CDB7DEB72B970FB6F894DEBFF8
:101952000FBECDBF4AE0BE016F5F7F4F0E94F00D08
:10196200CE0101960E94C80D2B960FB6F894DEBFE9
:0A1972000FBECDBFDF91CF910895A5
:10197C00CF93DF9300D0CDB7DEB79A838983CE01A6
:10198C0001966C0120E8E22E01E02AE030E06E2D99
:10199C00A60180916000909161000E94110585E084
:0819AC0090E00E945C0DF0CFF9
:1019B400E091A006F091A1068081811107C08FEF0C
:1019C4009FEF90939906809398060895E091A0065E
:1019D400F091A1060580F681E02D8081918190939C
:0819E40099068093980608950E
:1019EC00FC01248D2223B1F030E046815781420F57
:1019FC00531F57834683848195814817590720F0DC
:101A0C008081918197838683CB014681578160E8E1
:061A1C000E942B0D08954D
:101A2200BB27FB015527AA27880F991FAA1FA417B6
:101A320010F0A41B83955051B9F7A05DAA3308F0AA
:101A4200A95DA193009779F7B111B1931192CB01DE
:041A52000C94B80D2B
:101A5600CF92DF92EF92DC016A01E62E280F391F42
:101A6600A217B30751F0F6014491E7FC40814D936C
:101A76004FEFC41AD40AE40AF3CFEF90DF90CF9069
:021A86000895C1
:101A8800CF93DF9300D0CDB7DEB74AE050E0BE0178
:101A98006F5F7F4F80916000909161000E94CD053B
:101AA80089819A810E94A10C8DE00E943A0EEDCFA7
:101AB800CF93DF93EC01892B51F00E94260E60E052
:101AC800CE010E94BC090E94AB02811102C00E9493
:081AD8007808DF91CF91089519
:101AE000AA1BBB1B51E107C0AA1FBB1FA617B70744
:101AF00010F0A61BB70B881F991F5A95A9F7809560
:081B00009095BC01CD01089590
:101B0800CF93DF93EB016091A2067091A306645F07
:101B18007F4F0E94290B61E0CE010E94BC09DF9132
:041B2800CF910895BC
:101B2C000FB6F8940F92A82FCB014A96A11DFC0179
:101B3C009491A7FD90810F900FBE81E0911180E0F0
:021B4C000895FA
:101B4E00092E0394000C11F4882352F0BB0F40F4BD
:101B5E00BF2B11F460FF04C06F5F7F4F8F4F9F4FFD
:021B6E000895D8
:101B7000DC01FC01672F71917723E1F7329704C0F4
:101B80007C916D9370836291AE17BF07C8F308957F
:101B9000CF93DF93EC018881882331F021960E9456
:0E1BA0003A0E89918111FBCFDF91CF9108950C
:101BAE00FC010396928381832FEF3FEF34832383CF
:0C1BBE00968385839087878310820895AA
:101BCA002091A606FC01208320919C0630919D0657
:061BDA003283218308950F
:101BE000BB274A3031F4992322F4BDE290958195C8
:061BF0009F4F0C94120D42
:101BF60057FD03C06591759108956191719108959E
:0E1C06005058BB27AA270E944B070C94A70D2D
:0E1C14000E94BA0B6894B1110C94200E089532
:0E1C220000240A9416161706180609060895DF
:0E1C300000240A9412161306140605060895E1
:0E1C3E00E894BB2766277727CB0197F9089516
:0C1C4C008091A4068F5F8093A406089589
:0C1C580097F99F6780E870E060E0089555
:081C6400FC01118610860895B1
:081C6C0081E08093A7060895B2
:081C74005D9BFECF8CB90895C1
:081C7C000E9470060C94A70DF4
:061C84009FEF80EC0895C3
:041C8A000C940000B6
:00000001FF
